{
  "contractName": "ReviewContract",
  "abi": [
    {
      "inputs": [],
      "stateMutability": "nonpayable",
      "type": "constructor"
    },
    {
      "anonymous": false,
      "inputs": [
        {
          "indexed": false,
          "internalType": "string",
          "name": "productId",
          "type": "string"
        },
        {
          "indexed": false,
          "internalType": "string",
          "name": "ipfsHash",
          "type": "string"
        },
        {
          "indexed": false,
          "internalType": "string",
          "name": "userId",
          "type": "string"
        },
        {
          "indexed": false,
          "internalType": "uint256",
          "name": "timestamp",
          "type": "uint256"
        }
      ],
      "name": "ReviewSubmitted",
      "type": "event"
    },
    {
      "anonymous": false,
      "inputs": [
        {
          "indexed": false,
          "internalType": "string",
          "name": "userId",
          "type": "string"
        },
        {
          "indexed": false,
          "internalType": "string",
          "name": "productId",
          "type": "string"
        }
      ],
      "name": "ReviewerVerified",
      "type": "event"
    },
    {
      "inputs": [
        {
          "internalType": "string",
          "name": "userId",
          "type": "string"
        },
        {
          "internalType": "string",
          "name": "productId",
          "type": "string"
        }
      ],
      "name": "verifyReviewer",
      "outputs": [],
      "stateMutability": "nonpayable",
      "type": "function"
    },
    {
      "inputs": [
        {
          "internalType": "string",
          "name": "userId",
          "type": "string"
        },
        {
          "internalType": "string",
          "name": "productId",
          "type": "string"
        },
        {
          "internalType": "string",
          "name": "ipfsHash",
          "type": "string"
        }
      ],
      "name": "submitReview",
      "outputs": [],
      "stateMutability": "nonpayable",
      "type": "function"
    },
    {
      "inputs": [
        {
          "internalType": "string",
          "name": "productId",
          "type": "string"
        }
      ],
      "name": "getReviews",
      "outputs": [
        {
          "components": [
            {
              "internalType": "string",
              "name": "ipfsHash",
              "type": "string"
            },
            {
              "internalType": "uint256",
              "name": "timestamp",
              "type": "uint256"
            }
          ],
          "internalType": "struct ReviewContract.Review[]",
          "name": "",
          "type": "tuple[]"
        }
      ],
      "stateMutability": "view",
      "type": "function",
      "constant": true
    },
    {
      "inputs": [
        {
          "internalType": "string",
          "name": "userId",
          "type": "string"
        },
        {
          "internalType": "string",
          "name": "productId",
          "type": "string"
        }
      ],
      "name": "isReviewerVerified",
      "outputs": [
        {
          "internalType": "bool",
          "name": "",
          "type": "bool"
        }
      ],
      "stateMutability": "view",
      "type": "function",
      "constant": true
    },
    {
      "inputs": [
        {
          "internalType": "string",
          "name": "userId",
          "type": "string"
        },
        {
          "internalType": "string",
          "name": "productId",
          "type": "string"
        }
      ],
      "name": "hasUserReviewed",
      "outputs": [
        {
          "internalType": "bool",
          "name": "",
          "type": "bool"
        }
      ],
      "stateMutability": "view",
      "type": "function",
      "constant": true
    }
  ],
  "bytecode": "0x608060405234801561001057600080fd5b50600380546001600160a01b03191633179055610a56806100326000396000f3fe608060405234801561001057600080fd5b50600436106100575760003560e01c8063289ae8291461005c5780632978465d14610084578063a8a1e6d7146100a4578063d61aebd7146100b9578063f0bf814c146100cc575b600080fd5b61006f61006a36600461060e565b6100df565b60405190151581526020015b60405180910390f35b610097610092366004610672565b610128565b60405161007b91906106ff565b6100b76100b2366004610775565b610241565b005b6100b76100c736600461060e565b6104a5565b61006f6100da36600461060e565b610559565b60006002836040516100f191906107fd565b90815260200160405180910390208260405161010d91906107fd565b9081526040519081900360200190205460ff16905092915050565b606060008260405161013a91906107fd565b9081526020016040518091039020805480602002602001604051908101604052809291908181526020016000905b82821015610236578382906000526020600020906002020160405180604001604052908160008201805461019b90610819565b80601f01602080910402602001604051908101604052809291908181526020018280546101c790610819565b80156102145780601f106101e957610100808354040283529160200191610214565b820191906000526020600020905b8154815290600101906020018083116101f757829003601f168201915b5050505050815260200160018201548152505081526020019060010190610168565b505050509050919050565b6003546001600160a01b031633146102745760405162461bcd60e51b815260040161026b90610853565b60405180910390fd5b60028360405161028491906107fd565b9081526020016040518091039020826040516102a091906107fd565b9081526040519081900360200190205460ff166103155760405162461bcd60e51b815260206004820152602d60248201527f55736572206973206e6f7420617574686f72697a656420746f2072657669657760448201526c081d1a1a5cc81c1c9bd91d58dd609a1b606482015260840161026b565b60018360405161032591906107fd565b90815260200160405180910390208260405161034191906107fd565b9081526040519081900360200190205460ff16156103b05760405162461bcd60e51b815260206004820152602660248201527f557365722068617320616c7265616479207265766965776564207468697320706044820152651c9bd91d58dd60d21b606482015260840161026b565b60408051808201825282815242602082015290516000906103d29085906107fd565b90815260405160209181900382019020805460018101825560009182529190208251839260020290910190819061040990826108e7565b506020820151816001015550506001808560405161042791906107fd565b90815260200160405180910390208460405161044391906107fd565b908152604051908190036020018120805492151560ff19909316929092179091557fc913306a74454001421db83568d24ffd2e5e8e3c5d3f467ca1a38c5ac9ec99a6906104979085908590889042906109a7565b60405180910390a150505050565b6003546001600160a01b031633146104cf5760405162461bcd60e51b815260040161026b90610853565b60016002836040516104e191906107fd565b9081526020016040518091039020826040516104fd91906107fd565b908152604051908190036020018120805492151560ff19909316929092179091557f3acadbbd3c4e5bd68b9e7d2c3c79ee9828747de4875d4b11a3f87982f84a3fbe9061054d90849084906109f2565b60405180910390a15050565b60006001836040516100f191906107fd565b634e487b7160e01b600052604160045260246000fd5b600082601f83011261059257600080fd5b813567ffffffffffffffff808211156105ad576105ad61056b565b604051601f8301601f19908116603f011681019082821181831017156105d5576105d561056b565b816040528381528660208588010111156105ee57600080fd5b836020870160208301376000602085830101528094505050505092915050565b6000806040838503121561062157600080fd5b823567ffffffffffffffff8082111561063957600080fd5b61064586838701610581565b9350602085013591508082111561065b57600080fd5b5061066885828601610581565b9150509250929050565b60006020828403121561068457600080fd5b813567ffffffffffffffff81111561069b57600080fd5b6106a784828501610581565b949350505050565b60005b838110156106ca5781810151838201526020016106b2565b50506000910152565b600081518084526106eb8160208601602086016106af565b601f01601f19169290920160200192915050565b60006020808301818452808551808352604092508286019150828160051b87010184880160005b8381101561076757888303603f190185528151805187855261074a888601826106d3565b918901519489019490945294870194925090860190600101610726565b509098975050505050505050565b60008060006060848603121561078a57600080fd5b833567ffffffffffffffff808211156107a257600080fd5b6107ae87838801610581565b945060208601359150808211156107c457600080fd5b6107d087838801610581565b935060408601359150808211156107e657600080fd5b506107f386828701610581565b9150509250925092565b6000825161080f8184602087016106af565b9190910192915050565b600181811c9082168061082d57607f821691505b60208210810361084d57634e487b7160e01b600052602260045260246000fd5b50919050565b60208082526025908201527f4f6e6c7920746865206f776e65722063616e2063616c6c20746869732066756e60408201526431ba34b7b760d91b606082015260800190565b601f8211156108e257600081815260208120601f850160051c810160208610156108bf5750805b601f850160051c820191505b818110156108de578281556001016108cb565b5050505b505050565b815167ffffffffffffffff8111156109015761090161056b565b6109158161090f8454610819565b84610898565b602080601f83116001811461094a57600084156109325750858301515b600019600386901b1c1916600185901b1785556108de565b600085815260208120601f198616915b828110156109795788860151825594840194600190910190840161095a565b50858210156109975787850151600019600388901b60f8161c191681555b5050505050600190811b01905550565b6080815260006109ba60808301876106d3565b82810360208401526109cc81876106d3565b905082810360408401526109e081866106d3565b91505082606083015295945050505050565b604081526000610a0560408301856106d3565b8281036020840152610a1781856106d3565b9594505050505056fea264697066735822122048cd619851ef128738fcbe80a3a62105de5b97538c0ae3d055afd4c35123561264736f6c63430008110033",
  "immutableReferences": {},
  "source": "// SPDX-License-Identifier: MIT\npragma solidity ^0.8.0;\n\ncontract ReviewContract {\n    struct Review {\n        string ipfsHash;\n        uint256 timestamp;\n    }\n\n    // Mapping from productId to array of reviews\n    mapping(string => Review[]) private productReviews;\n    \n    // Mapping to track if a user has already reviewed a product\n    mapping(string => mapping(string => bool)) private hasReviewed;\n    \n    // Mapping to store verified reviewers (userId => productId => bool)\n    mapping(string => mapping(string => bool)) private verifiedReviewers;\n\n    // Events\n    event ReviewSubmitted(string productId, string ipfsHash, string userId, uint256 timestamp);\n    event ReviewerVerified(string userId, string productId);\n\n    // Owner of the contract\n    address private owner;\n\n    constructor() {\n        owner = msg.sender;\n    }\n\n    // Modifier to check if the caller is the owner\n    modifier onlyOwner() {\n        require(msg.sender == owner, \"Only the owner can call this function\");\n        _;\n    }\n\n    // Verify a reviewer for a specific product (called by backend)\n    function verifyReviewer(string memory userId, string memory productId) public onlyOwner {\n        verifiedReviewers[userId][productId] = true;\n        emit ReviewerVerified(userId, productId);\n    }\n\n    // Submit a review for a product\n    function submitReview(string memory userId, string memory productId, string memory ipfsHash) public onlyOwner {\n        // Check if the reviewer is verified for this product\n        require(verifiedReviewers[userId][productId], \"User is not authorized to review this product\");\n        \n        // Check if the reviewer has already reviewed this product\n        require(!hasReviewed[userId][productId], \"User has already reviewed this product\");\n        \n        // Create a new review\n        Review memory newReview = Review({\n            ipfsHash: ipfsHash,\n            timestamp: block.timestamp\n        });\n        \n        // Add the review to the product's reviews\n        productReviews[productId].push(newReview);\n        \n        // Mark that this reviewer has reviewed this product\n        hasReviewed[userId][productId] = true;\n        \n        // Emit an event\n        emit ReviewSubmitted(productId, ipfsHash, userId, block.timestamp);\n    }\n\n    // Get all reviews for a product\n    function getReviews(string memory productId) public view returns (Review[] memory) {\n        return productReviews[productId];\n    }\n\n    // Check if a reviewer is verified for a product\n    function isReviewerVerified(string memory userId, string memory productId) public view returns (bool) {\n        return verifiedReviewers[userId][productId];\n    }\n\n    // Check if a reviewer has already reviewed a product\n    function hasUserReviewed(string memory userId, string memory productId) public view returns (bool) {\n        return hasReviewed[userId][productId];\n    }\n} ",
  "sourcePath": "/Users/nayannayak/Documents/ecommerce_react_node/backend/src/blockchain/contracts/ReviewContract.sol",
  "compiler": {
    "name": "solc",
    "version": "0.8.17+commit.8df45f5f.Emscripten.clang"
  },
  "schemaVersion": "3.4.16",
  "updatedAt": "2025-03-17T13:11:41.383Z",
  "networkType": "ethereum",
  "devdoc": {
    "kind": "dev",
    "methods": {},
    "version": 1
  },
  "userdoc": {
    "kind": "user",
    "methods": {},
    "version": 1
  }
}